{
  "contractName": "Crowdfunding",
  "abi": [
    {
      "inputs": [
        {
          "internalType": "string",
          "name": "campaignName",
          "type": "string"
        },
        {
          "internalType": "uint256",
          "name": "targetAmountEth",
          "type": "uint256"
        },
        {
          "internalType": "uint256",
          "name": "durationInMin",
          "type": "uint256"
        },
        {
          "internalType": "address payable",
          "name": "beneficiaryAddress",
          "type": "address"
        }
      ],
      "stateMutability": "nonpayable",
      "type": "constructor"
    },
    {
      "anonymous": false,
      "inputs": [
        {
          "indexed": false,
          "internalType": "address",
          "name": "addr",
          "type": "address"
        },
        {
          "indexed": false,
          "internalType": "uint256",
          "name": "totalCollected",
          "type": "uint256"
        },
        {
          "indexed": false,
          "internalType": "bool",
          "name": "succeeded",
          "type": "bool"
        }
      ],
      "name": "CampaignFinished",
      "type": "event"
    },
    {
      "anonymous": false,
      "inputs": [
        {
          "indexed": true,
          "internalType": "address",
          "name": "previousOwner",
          "type": "address"
        },
        {
          "indexed": true,
          "internalType": "address",
          "name": "newOwner",
          "type": "address"
        }
      ],
      "name": "OwnershipTransferred",
      "type": "event"
    },
    {
      "inputs": [
        {
          "internalType": "address",
          "name": "",
          "type": "address"
        }
      ],
      "name": "amounts",
      "outputs": [
        {
          "internalType": "uint256",
          "name": "",
          "type": "uint256"
        }
      ],
      "stateMutability": "view",
      "type": "function",
      "constant": true
    },
    {
      "inputs": [],
      "name": "beneficiary",
      "outputs": [
        {
          "internalType": "address payable",
          "name": "",
          "type": "address"
        }
      ],
      "stateMutability": "view",
      "type": "function",
      "constant": true
    },
    {
      "inputs": [],
      "name": "collected",
      "outputs": [
        {
          "internalType": "bool",
          "name": "",
          "type": "bool"
        }
      ],
      "stateMutability": "view",
      "type": "function",
      "constant": true
    },
    {
      "inputs": [],
      "name": "fundingDeadline",
      "outputs": [
        {
          "internalType": "uint256",
          "name": "",
          "type": "uint256"
        }
      ],
      "stateMutability": "view",
      "type": "function",
      "constant": true
    },
    {
      "inputs": [],
      "name": "name",
      "outputs": [
        {
          "internalType": "string",
          "name": "",
          "type": "string"
        }
      ],
      "stateMutability": "view",
      "type": "function",
      "constant": true
    },
    {
      "inputs": [],
      "name": "owner",
      "outputs": [
        {
          "internalType": "address",
          "name": "",
          "type": "address"
        }
      ],
      "stateMutability": "view",
      "type": "function",
      "constant": true
    },
    {
      "inputs": [],
      "name": "renounceOwnership",
      "outputs": [],
      "stateMutability": "nonpayable",
      "type": "function"
    },
    {
      "inputs": [],
      "name": "state",
      "outputs": [
        {
          "internalType": "enum Crowdfunding.State",
          "name": "",
          "type": "uint8"
        }
      ],
      "stateMutability": "view",
      "type": "function",
      "constant": true
    },
    {
      "inputs": [],
      "name": "targetAmount",
      "outputs": [
        {
          "internalType": "uint256",
          "name": "",
          "type": "uint256"
        }
      ],
      "stateMutability": "view",
      "type": "function",
      "constant": true
    },
    {
      "inputs": [
        {
          "internalType": "address",
          "name": "newOwner",
          "type": "address"
        }
      ],
      "name": "transferOwnership",
      "outputs": [],
      "stateMutability": "nonpayable",
      "type": "function"
    },
    {
      "stateMutability": "payable",
      "type": "receive",
      "payable": true
    },
    {
      "inputs": [],
      "name": "totalCollected",
      "outputs": [
        {
          "internalType": "uint256",
          "name": "",
          "type": "uint256"
        }
      ],
      "stateMutability": "view",
      "type": "function",
      "constant": true
    },
    {
      "inputs": [],
      "name": "finishCrowdfunding",
      "outputs": [],
      "stateMutability": "nonpayable",
      "type": "function"
    },
    {
      "inputs": [],
      "name": "cancelCrowdfunding",
      "outputs": [],
      "stateMutability": "nonpayable",
      "type": "function"
    },
    {
      "inputs": [],
      "name": "collect",
      "outputs": [],
      "stateMutability": "nonpayable",
      "type": "function"
    },
    {
      "inputs": [],
      "name": "withdraw",
      "outputs": [],
      "stateMutability": "nonpayable",
      "type": "function"
    },
    {
      "inputs": [],
      "name": "beforeDeadline",
      "outputs": [
        {
          "internalType": "bool",
          "name": "",
          "type": "bool"
        }
      ],
      "stateMutability": "view",
      "type": "function",
      "constant": true
    }
  ],
  "bytecode": "0x60806040523480156200001157600080fd5b506040516200204738038062002047833981810160405281019062000037919062000692565b620000576200004b6200023b60201b60201c565b6200024360201b60201c565b836001908162000068919062000964565b508273__Utils_________________________________63d8916bb990916040518263ffffffff1660e01b8152600401620000a4919062000a5c565b602060405180830381865af4158015620000c2573d6000803e3d6000fd5b505050506040513d601f19601f82011682018060405250810190620000e8919062000a79565b6002819055508173__Utils_________________________________63529b380f90916040518263ffffffff1660e01b815260040162000129919062000a5c565b602060405180830381865af415801562000147573d6000803e3d6000fd5b505050506040513d601f19601f820116820180604052508101906200016d919062000a79565b6200017d6200030760201b60201c565b62000189919062000ada565b60038190555080600460006101000a81548173ffffffffffffffffffffffffffffffffffffffff021916908373ffffffffffffffffffffffffffffffffffffffff1602179055506000600460146101000a81548160ff02191690836003811115620001f957620001f862000b15565b5b021790555062000231600460009054906101000a900473ffffffffffffffffffffffffffffffffffffffff166200030f60201b60201c565b5050505062000c5f565b600033905090565b60008060009054906101000a900473ffffffffffffffffffffffffffffffffffffffff169050816000806101000a81548173ffffffffffffffffffffffffffffffffffffffff021916908373ffffffffffffffffffffffffffffffffffffffff1602179055508173ffffffffffffffffffffffffffffffffffffffff168173ffffffffffffffffffffffffffffffffffffffff167f8be0079c531659141344cd1fd0a4f28419497f9722a3daafe3b4186f6b6457e060405160405180910390a35050565b600042905090565b6200031f620003a560201b60201c565b600073ffffffffffffffffffffffffffffffffffffffff168173ffffffffffffffffffffffffffffffffffffffff160362000391576040517f08c379a0000000000000000000000000000000000000000000000000000000008152600401620003889062000bcb565b60405180910390fd5b620003a2816200024360201b60201c565b50565b620003b56200023b60201b60201c565b73ffffffffffffffffffffffffffffffffffffffff16620003db6200043660201b60201c565b73ffffffffffffffffffffffffffffffffffffffff161462000434576040517f08c379a00000000000000000000000000000000000000000000000000000000081526004016200042b9062000c3d565b60405180910390fd5b565b60008060009054906101000a900473ffffffffffffffffffffffffffffffffffffffff16905090565b6000604051905090565b600080fd5b600080fd5b600080fd5b600080fd5b6000601f19601f8301169050919050565b7f4e487b7100000000000000000000000000000000000000000000000000000000600052604160045260246000fd5b620004c8826200047d565b810181811067ffffffffffffffff82111715620004ea57620004e96200048e565b5b80604052505050565b6000620004ff6200045f565b90506200050d8282620004bd565b919050565b600067ffffffffffffffff82111562000530576200052f6200048e565b5b6200053b826200047d565b9050602081019050919050565b60005b83811015620005685780820151818401526020810190506200054b565b60008484015250505050565b60006200058b620005858462000512565b620004f3565b905082815260208101848484011115620005aa57620005a962000478565b5b620005b784828562000548565b509392505050565b600082601f830112620005d757620005d662000473565b5b8151620005e984826020860162000574565b91505092915050565b6000819050919050565b6200060781620005f2565b81146200061357600080fd5b50565b6000815190506200062781620005fc565b92915050565b600073ffffffffffffffffffffffffffffffffffffffff82169050919050565b60006200065a826200062d565b9050919050565b6200066c816200064d565b81146200067857600080fd5b50565b6000815190506200068c8162000661565b92915050565b60008060008060808587031215620006af57620006ae62000469565b5b600085015167ffffffffffffffff811115620006d057620006cf6200046e565b5b620006de87828801620005bf565b9450506020620006f18782880162000616565b9350506040620007048782880162000616565b925050606062000717878288016200067b565b91505092959194509250565b600081519050919050565b7f4e487b7100000000000000000000000000000000000000000000000000000000600052602260045260246000fd5b600060028204905060018216806200077657607f821691505b6020821081036200078c576200078b6200072e565b5b50919050565b60008190508160005260206000209050919050565b60006020601f8301049050919050565b600082821b905092915050565b600060088302620007f67fffffffffffffffffffffffffffffffffffffffffffffffffffffffffffffffff82620007b7565b620008028683620007b7565b95508019841693508086168417925050509392505050565b6000819050919050565b6000620008456200083f6200083984620005f2565b6200081a565b620005f2565b9050919050565b6000819050919050565b620008618362000824565b6200087962000870826200084c565b848454620007c4565b825550505050565b600090565b6200089062000881565b6200089d81848462000856565b505050565b5b81811015620008c557620008b960008262000886565b600181019050620008a3565b5050565b601f8211156200091457620008de8162000792565b620008e984620007a7565b81016020851015620008f9578190505b620009116200090885620007a7565b830182620008a2565b50505b505050565b600082821c905092915050565b6000620009396000198460080262000919565b1980831691505092915050565b600062000954838362000926565b9150826002028217905092915050565b6200096f8262000723565b67ffffffffffffffff8111156200098b576200098a6200048e565b5b6200099782546200075d565b620009a4828285620008c9565b600060209050601f831160018114620009dc5760008415620009c7578287015190505b620009d3858262000946565b86555062000a43565b601f198416620009ec8662000792565b60005b8281101562000a1657848901518255600182019150602085019450602081019050620009ef565b8683101562000a36578489015162000a32601f89168262000926565b8355505b6001600288020188555050505b505050505050565b62000a5681620005f2565b82525050565b600060208201905062000a73600083018462000a4b565b92915050565b60006020828403121562000a925762000a9162000469565b5b600062000aa28482850162000616565b91505092915050565b7f4e487b7100000000000000000000000000000000000000000000000000000000600052601160045260246000fd5b600062000ae782620005f2565b915062000af483620005f2565b925082820190508082111562000b0f5762000b0e62000aab565b5b92915050565b7f4e487b7100000000000000000000000000000000000000000000000000000000600052602160045260246000fd5b600082825260208201905092915050565b7f4f776e61626c653a206e6577206f776e657220697320746865207a65726f206160008201527f6464726573730000000000000000000000000000000000000000000000000000602082015250565b600062000bb360268362000b44565b915062000bc08262000b55565b604082019050919050565b6000602082019050818103600083015262000be68162000ba4565b9050919050565b7f4f776e61626c653a2063616c6c6572206973206e6f7420746865206f776e6572600082015250565b600062000c2560208362000b44565b915062000c328262000bed565b602082019050919050565b6000602082019050818103600083015262000c588162000c16565b9050919050565b6113d88062000c6f6000396000f3fe6080604052600436106100f75760003560e01c80638da5cb5b1161008a578063c19d93fb11610059578063c19d93fb14610409578063e29eb83614610434578063e52253811461045f578063f2fde38b146104765761023e565b80638da5cb5b14610385578063953b8fb8146103b0578063a4fac527146103db578063a84669de146103f25761023e565b806368bc0041116100c657806368bc0041146102ed578063715018a614610318578063796b23bb1461032f57806384bcefd41461035a5761023e565b806306fdde031461024357806338af3eed1461026e5780633ccfd60b1461029957806355a3b2c1146102b05761023e565b3661023e57600080600381111561011157610110610d56565b5b600460149054906101000a900460ff16600381111561013357610132610d56565b5b14610173576040517f08c379a000000000000000000000000000000000000000000000000000000000815260040161016a90610de2565b60405180910390fd5b61017b61049f565b6101ba576040517f08c379a00000000000000000000000000000000000000000000000000000000081526004016101b190610e4e565b60405180910390fd5b34600560003373ffffffffffffffffffffffffffffffffffffffff1673ffffffffffffffffffffffffffffffffffffffff16815260200190815260200160002060008282546102099190610ea7565b9250508190555060025461021b6104b2565b1061023c576001600660006101000a81548160ff0219169083151502179055505b005b600080fd5b34801561024f57600080fd5b506102586104ba565b6040516102659190610f5a565b60405180910390f35b34801561027a57600080fd5b50610283610548565b6040516102909190610fbd565b60405180910390f35b3480156102a557600080fd5b506102ae61056e565b005b3480156102bc57600080fd5b506102d760048036038101906102d2919061101b565b61073b565b6040516102e49190611057565b60405180910390f35b3480156102f957600080fd5b5061030261049f565b60405161030f919061108d565b60405180910390f35b34801561032457600080fd5b5061032d610753565b005b34801561033b57600080fd5b50610344610767565b6040516103519190611057565b60405180910390f35b34801561036657600080fd5b5061036f61076d565b60405161037c919061108d565b60405180910390f35b34801561039157600080fd5b5061039a610780565b6040516103a791906110b7565b60405180910390f35b3480156103bc57600080fd5b506103c56107a9565b6040516103d29190611057565b60405180910390f35b3480156103e757600080fd5b506103f06107af565b005b3480156103fe57600080fd5b506104076108a3565b005b34801561041557600080fd5b5061041e610a25565b60405161042b919061111a565b60405180910390f35b34801561044057600080fd5b506104496104b2565b6040516104569190611057565b60405180910390f35b34801561046b57600080fd5b50610474610a38565b005b34801561048257600080fd5b5061049d6004803603810190610498919061101b565b610b71565b005b60006003546104ac610bf4565b10905090565b600047905090565b600180546104c790611164565b80601f01602080910402602001604051908101604052809291908181526020018280546104f390611164565b80156105405780601f1061051557610100808354040283529160200191610540565b820191906000526020600020905b81548152906001019060200180831161052357829003601f168201915b505050505081565b600460009054906101000a900473ffffffffffffffffffffffffffffffffffffffff1681565b600180600381111561058357610582610d56565b5b600460149054906101000a900460ff1660038111156105a5576105a4610d56565b5b146105e5576040517f08c379a00000000000000000000000000000000000000000000000000000000081526004016105dc90610de2565b60405180910390fd5b6000600560003373ffffffffffffffffffffffffffffffffffffffff1673ffffffffffffffffffffffffffffffffffffffff1681526020019081526020016000205411610667576040517f08c379a000000000000000000000000000000000000000000000000000000000815260040161065e906111e1565b60405180910390fd5b6000600560003373ffffffffffffffffffffffffffffffffffffffff1673ffffffffffffffffffffffffffffffffffffffff1681526020019081526020016000205490506000600560003373ffffffffffffffffffffffffffffffffffffffff1673ffffffffffffffffffffffffffffffffffffffff168152602001908152602001600020819055503373ffffffffffffffffffffffffffffffffffffffff166108fc829081150290604051600060405180830381858888f19350505050158015610736573d6000803e3d6000fd5b505050565b60056020528060005260406000206000915090505481565b61075b610bfc565b6107656000610c7a565b565b60035481565b600660009054906101000a900460ff1681565b60008060009054906101000a900473ffffffffffffffffffffffffffffffffffffffff16905090565b60025481565b60008060038111156107c4576107c3610d56565b5b600460149054906101000a900460ff1660038111156107e6576107e5610d56565b5b14610826576040517f08c379a000000000000000000000000000000000000000000000000000000000815260040161081d90610de2565b60405180910390fd5b61082e610bfc565b61083661049f565b610875576040517f08c379a000000000000000000000000000000000000000000000000000000000815260040161086c90610e4e565b60405180910390fd5b6001600460146101000a81548160ff0219169083600381111561089b5761089a610d56565b5b021790555050565b60008060038111156108b8576108b7610d56565b5b600460149054906101000a900460ff1660038111156108da576108d9610d56565b5b1461091a576040517f08c379a000000000000000000000000000000000000000000000000000000000815260040161091190610de2565b60405180910390fd5b610922610d3e565b610961576040517f08c379a00000000000000000000000000000000000000000000000000000000081526004016109589061124d565b60405180910390fd5b600660009054906101000a900460ff166109a5576001600460146101000a81548160ff0219169083600381111561099b5761099a610d56565b5b02179055506109d1565b6002600460146101000a81548160ff021916908360038111156109cb576109ca610d56565b5b02179055505b7f6fa7e87ebbd87ed4f1c40bba63144f68fd2bb022fb748ab3b61b5411c39bd474306109fb6104b2565b600660009054906101000a900460ff16604051610a1a9392919061126d565b60405180910390a150565b600460149054906101000a900460ff1681565b6002806003811115610a4d57610a4c610d56565b5b600460149054906101000a900460ff166003811115610a6f57610a6e610d56565b5b14610aaf576040517f08c379a0000000000000000000000000000000000000000000000000000000008152600401610aa690610de2565b60405180910390fd5b600460009054906101000a900473ffffffffffffffffffffffffffffffffffffffff1673ffffffffffffffffffffffffffffffffffffffff166108fc610af36104b2565b9081150290604051600060405180830381858888f1935050505015610b42576003600460146101000a81548160ff02191690836003811115610b3857610b37610d56565b5b0217905550610b6e565b6001600460146101000a81548160ff02191690836003811115610b6857610b67610d56565b5b02179055505b50565b610b79610bfc565b600073ffffffffffffffffffffffffffffffffffffffff168173ffffffffffffffffffffffffffffffffffffffff1603610be8576040517f08c379a0000000000000000000000000000000000000000000000000000000008152600401610bdf90611316565b60405180910390fd5b610bf181610c7a565b50565b600042905090565b610c04610d4e565b73ffffffffffffffffffffffffffffffffffffffff16610c22610780565b73ffffffffffffffffffffffffffffffffffffffff1614610c78576040517f08c379a0000000000000000000000000000000000000000000000000000000008152600401610c6f90611382565b60405180910390fd5b565b60008060009054906101000a900473ffffffffffffffffffffffffffffffffffffffff169050816000806101000a81548173ffffffffffffffffffffffffffffffffffffffff021916908373ffffffffffffffffffffffffffffffffffffffff1602179055508173ffffffffffffffffffffffffffffffffffffffff168173ffffffffffffffffffffffffffffffffffffffff167f8be0079c531659141344cd1fd0a4f28419497f9722a3daafe3b4186f6b6457e060405160405180910390a35050565b6000610d4861049f565b15905090565b600033905090565b7f4e487b7100000000000000000000000000000000000000000000000000000000600052602160045260246000fd5b600082825260208201905092915050565b7f496e636f72726563742063726f776466756e64696e6720737461746500000000600082015250565b6000610dcc601c83610d85565b9150610dd782610d96565b602082019050919050565b60006020820190508181036000830152610dfb81610dbf565b9050919050565b7f446561646c696e65206861732070617373656400000000000000000000000000600082015250565b6000610e38601383610d85565b9150610e4382610e02565b602082019050919050565b60006020820190508181036000830152610e6781610e2b565b9050919050565b6000819050919050565b7f4e487b7100000000000000000000000000000000000000000000000000000000600052601160045260246000fd5b6000610eb282610e6e565b9150610ebd83610e6e565b9250828201905080821115610ed557610ed4610e78565b5b92915050565b600081519050919050565b60005b83811015610f04578082015181840152602081019050610ee9565b60008484015250505050565b6000601f19601f8301169050919050565b6000610f2c82610edb565b610f368185610d85565b9350610f46818560208601610ee6565b610f4f81610f10565b840191505092915050565b60006020820190508181036000830152610f748184610f21565b905092915050565b600073ffffffffffffffffffffffffffffffffffffffff82169050919050565b6000610fa782610f7c565b9050919050565b610fb781610f9c565b82525050565b6000602082019050610fd26000830184610fae565b92915050565b600080fd5b6000610fe882610f7c565b9050919050565b610ff881610fdd565b811461100357600080fd5b50565b60008135905061101581610fef565b92915050565b60006020828403121561103157611030610fd8565b5b600061103f84828501611006565b91505092915050565b61105181610e6e565b82525050565b600060208201905061106c6000830184611048565b92915050565b60008115159050919050565b61108781611072565b82525050565b60006020820190506110a2600083018461107e565b92915050565b6110b181610fdd565b82525050565b60006020820190506110cc60008301846110a8565b92915050565b600481106110e3576110e2610d56565b5b50565b60008190506110f4826110d2565b919050565b6000611104826110e6565b9050919050565b611114816110f9565b82525050565b600060208201905061112f600083018461110b565b92915050565b7f4e487b7100000000000000000000000000000000000000000000000000000000600052602260045260246000fd5b6000600282049050600182168061117c57607f821691505b60208210810361118f5761118e611135565b5b50919050565b7f4e6f2066756e647320666f72206163636f756e74000000000000000000000000600082015250565b60006111cb601483610d85565b91506111d682611195565b602082019050919050565b600060208201905081810360008301526111fa816111be565b9050919050565b7f446561646c696e6520686173206e6f7420706173736564000000000000000000600082015250565b6000611237601783610d85565b915061124282611201565b602082019050919050565b600060208201905081810360008301526112668161122a565b9050919050565b600060608201905061128260008301866110a8565b61128f6020830185611048565b61129c604083018461107e565b949350505050565b7f4f776e61626c653a206e6577206f776e657220697320746865207a65726f206160008201527f6464726573730000000000000000000000000000000000000000000000000000602082015250565b6000611300602683610d85565b915061130b826112a4565b604082019050919050565b6000602082019050818103600083015261132f816112f3565b9050919050565b7f4f776e61626c653a2063616c6c6572206973206e6f7420746865206f776e6572600082015250565b600061136c602083610d85565b915061137782611336565b602082019050919050565b6000602082019050818103600083015261139b8161135f565b905091905056fea264697066735822122060f0c9b086ee2c5e6dc155d42aaf06d6f6bc0efe90656e7bb2c65b3a9abf731c64736f6c63430008130033",
  "immutableReferences": {},
  "source": "// SPDX-License-Identifier: UNLICENSED\r\npragma solidity ^0.8.0;\r\n\r\nimport \"@openzeppelin/contracts/access/Ownable.sol\";\r\n\r\nimport \"./Utils.sol\";\r\n\r\ncontract Crowdfunding is Ownable {\r\n\r\n    using Utils for uint;\r\n\r\n    enum State { Ongoing, Failed, Succeded, PaidOut }\r\n\r\n    event CampaignFinished(\r\n        address addr,\r\n        uint totalCollected,\r\n        bool succeeded\r\n    );\r\n\r\n    string public name;\r\n    uint public targetAmount;\r\n    uint public fundingDeadline;\r\n    address payable public beneficiary;\r\n    State public state;\r\n    mapping(address => uint) public amounts;\r\n    bool public collected;\r\n\r\n    modifier inState(State expectedState) {\r\n        require(state == expectedState,  \"Incorrect crowdfunding state\");\r\n        _;\r\n    }\r\n\r\n    constructor(\r\n        string memory campaignName,\r\n        uint targetAmountEth,\r\n        uint durationInMin,\r\n        address payable beneficiaryAddress\r\n    )\r\n    {\r\n        name = campaignName;\r\n        targetAmount = targetAmountEth.etherToWei();\r\n        fundingDeadline = currentTime() + durationInMin.minutesToSeconds();\r\n        beneficiary = beneficiaryAddress;\r\n        state = State.Ongoing;\r\n\r\n        transferOwnership(beneficiary);\r\n    }\r\n\r\n    receive() external payable inState(State.Ongoing) {\r\n        require(beforeDeadline(), \"Deadline has passed\");\r\n        amounts[msg.sender] += msg.value;\r\n\r\n        if (totalCollected() >= targetAmount) {\r\n            collected = true;\r\n        }\r\n    }\r\n\r\n    function totalCollected() public view returns(uint) {\r\n        return address(this).balance;\r\n    }\r\n\r\n    function finishCrowdfunding() public inState(State.Ongoing) {\r\n        require(afterDeadline(), \"Deadline has not passed\");\r\n\r\n        if (!collected) {\r\n            state = State.Failed;\r\n        } else {\r\n            state = State.Succeded;\r\n        }\r\n        emit CampaignFinished(address(this), totalCollected(), collected);\r\n    }\r\n\r\n    function cancelCrowdfunding() public inState(State.Ongoing) onlyOwner() {\r\n        require(beforeDeadline(), \"Deadline has passed\");\r\n\r\n        state = State.Failed;\r\n    }\r\n\r\n    function collect() inState(State.Succeded) public {\r\n        if (beneficiary.send(totalCollected())) {\r\n            state = State.PaidOut;\r\n        } else {\r\n            state = State.Failed;\r\n        }\r\n    }\r\n\r\n    function withdraw() public inState(State.Failed) {\r\n        require(amounts[msg.sender] > 0, \"No funds for account\");\r\n        uint contributed = amounts[msg.sender];\r\n        amounts[msg.sender] = 0;\r\n\r\n        payable(msg.sender).transfer(contributed);\r\n    }\r\n\r\n    function beforeDeadline() public view returns(bool) {\r\n        return currentTime() < fundingDeadline;\r\n    }\r\n\r\n    function afterDeadline() internal view returns(bool) {\r\n        return !beforeDeadline();\r\n    }\r\n\r\n    function currentTime() private view returns(uint) {\r\n        return block.timestamp;\r\n    }\r\n}",
  "sourcePath": "C:\\Users\\Lloyd\\Desktop\\ProjectBock\\truffle-project\\contracts\\Crowdfunding.sol",
  "compiler": {
    "name": "solc",
    "version": "0.8.19+commit.7dd6d404.Emscripten.clang"
  },
  "schemaVersion": "3.4.13",
  "updatedAt": "2023-03-31T13:01:39.597Z",
  "networkType": "ethereum",
  "devdoc": {
    "kind": "dev",
    "methods": {
      "owner()": {
        "details": "Returns the address of the current owner."
      },
      "renounceOwnership()": {
        "details": "Leaves the contract without owner. It will not be possible to call `onlyOwner` functions anymore. Can only be called by the current owner. NOTE: Renouncing ownership will leave the contract without an owner, thereby removing any functionality that is only available to the owner."
      },
      "transferOwnership(address)": {
        "details": "Transfers ownership of the contract to a new account (`newOwner`). Can only be called by the current owner."
      }
    },
    "version": 1
  },
  "userdoc": {
    "kind": "user",
    "methods": {},
    "version": 1
  }
}